{
  "_format": "hh-sol-artifact-1",
  "contractName": "MultiSend",
  "sourceName": "contracts/utility/MultiSend.sol",
  "abi": [
    {
      "inputs": [
        {
          "internalType": "contract IERC20",
          "name": "token",
          "type": "address"
        },
        {
          "internalType": "address[]",
          "name": "to",
          "type": "address[]"
        },
        {
          "internalType": "uint256",
          "name": "amount",
          "type": "uint256"
        }
      ],
      "name": "multiSendFixedAmount",
      "outputs": [],
      "stateMutability": "nonpayable",
      "type": "function"
    },
    {
      "inputs": [
        {
          "internalType": "contract IERC20",
          "name": "token",
          "type": "address"
        },
        {
          "internalType": "address[]",
          "name": "to",
          "type": "address[]"
        },
        {
          "internalType": "uint256[]",
          "name": "amounts",
          "type": "uint256[]"
        }
      ],
      "name": "multiSendFlexibleAmount",
      "outputs": [],
      "stateMutability": "nonpayable",
      "type": "function"
    }
  ],
  "bytecode": "0x608060405234801561001057600080fd5b50610acf806100206000396000f3fe608060405234801561001057600080fd5b50600436106100365760003560e01c8063d70713801461003b578063fccd465e14610050575b600080fd5b61004e61004936600461089d565b610063565b005b61004e61005e366004610969565b610412565b80518251146100b15760405162461bcd60e51b8152602060048201526015602482015274496e76616c696420696e707574206c656e6774687360581b60448201526064015b60405180910390fd5b6100ba81610758565b6040516370a0823160e01b81523360048201526001600160a01b038516906370a082319060240160206040518083038186803b1580156100f957600080fd5b505afa15801561010d573d6000803e3d6000fd5b505050506040513d601f19601f8201168201806040525081019061013191906109c2565b10156101765760405162461bcd60e51b8152602060048201526014602482015273496e73756666696369656e742062616c616e636560601b60448201526064016100a8565b604051636eb1769f60e11b81523360048201523060248201526000906001600160a01b0385169063dd62ed3e9060440160206040518083038186803b1580156101be57600080fd5b505afa1580156101d2573d6000803e3d6000fd5b505050506040513d601f19601f820116820180604052508101906101f691906109c2565b9050600061020383610758565b9050808210156102e0576001600160a01b03851663095ea7b33061022785856109f1565b6040516001600160e01b031960e085901b1681526001600160a01b039092166004830152602482015260440160206040518083038186803b15801561026b57600080fd5b505afa15801561027f573d6000803e3d6000fd5b505050506040513d601f19601f820116820180604052508101906102a39190610a08565b6102e05760405162461bcd60e51b815260206004820152600e60248201526d105c1c1c9bdd994819985a5b195960921b60448201526064016100a8565b60005b845181101561040a57856001600160a01b03166323b872dd3387848151811061030e5761030e610a31565b602002602001015187858151811061032857610328610a31565b60209081029190910101516040516001600160e01b031960e086901b1681526001600160a01b0393841660048201529290911660248301526044820152606401602060405180830381600087803b15801561038257600080fd5b505af1158015610396573d6000803e3d6000fd5b505050506040513d601f19601f820116820180604052508101906103ba9190610a08565b6103f85760405162461bcd60e51b815260206004820152600f60248201526e151c985b9cd9995c8819985a5b1959608a1b60448201526064016100a8565b8061040281610a47565b9150506102e3565b505050505050565b815161041e9082610a62565b6040516370a0823160e01b81523360048201526001600160a01b038516906370a082319060240160206040518083038186803b15801561045d57600080fd5b505afa158015610471573d6000803e3d6000fd5b505050506040513d601f19601f8201168201806040525081019061049591906109c2565b10156104da5760405162461bcd60e51b8152602060048201526014602482015273496e73756666696369656e742062616c616e636560601b60448201526064016100a8565b604051636eb1769f60e11b81523360048201523060248201526000906001600160a01b0385169063dd62ed3e9060440160206040518083038186803b15801561052257600080fd5b505afa158015610536573d6000803e3d6000fd5b505050506040513d601f19601f8201168201806040525081019061055a91906109c2565b9050600083518361056b9190610a62565b905080821015610648576001600160a01b03851663095ea7b33061058f85856109f1565b6040516001600160e01b031960e085901b1681526001600160a01b039092166004830152602482015260440160206040518083038186803b1580156105d357600080fd5b505afa1580156105e7573d6000803e3d6000fd5b505050506040513d601f19601f8201168201806040525081019061060b9190610a08565b6106485760405162461bcd60e51b815260206004820152600e60248201526d105c1c1c9bdd994819985a5b195960921b60448201526064016100a8565b60005b845181101561040a57856001600160a01b03166323b872dd3387848151811061067657610676610a31565b60209081029190910101516040516001600160e01b031960e085901b1681526001600160a01b0392831660048201529116602482015260448101879052606401602060405180830381600087803b1580156106d057600080fd5b505af11580156106e4573d6000803e3d6000fd5b505050506040513d601f19601f820116820180604052508101906107089190610a08565b6107465760405162461bcd60e51b815260206004820152600f60248201526e151c985b9cd9995c8819985a5b1959608a1b60448201526064016100a8565b8061075081610a47565b91505061064b565b600080805b835181101561079f5783818151811061077857610778610a31565b60200260200101518261078b9190610a81565b91508061079781610a47565b91505061075d565b5092915050565b6001600160a01b03811681146107bb57600080fd5b50565b634e487b7160e01b600052604160045260246000fd5b604051601f8201601f1916810167ffffffffffffffff811182821017156107fd576107fd6107be565b604052919050565b600067ffffffffffffffff82111561081f5761081f6107be565b5060051b60200190565b600082601f83011261083a57600080fd5b8135602061084f61084a83610805565b6107d4565b82815260059290921b8401810191818101908684111561086e57600080fd5b8286015b84811015610892578035610885816107a6565b8352918301918301610872565b509695505050505050565b6000806000606084860312156108b257600080fd5b83356108bd816107a6565b925060208481013567ffffffffffffffff808211156108db57600080fd5b6108e788838901610829565b945060408701359150808211156108fd57600080fd5b508501601f8101871361090f57600080fd5b803561091d61084a82610805565b81815260059190911b8201830190838101908983111561093c57600080fd5b928401925b8284101561095a57833582529284019290840190610941565b80955050505050509250925092565b60008060006060848603121561097e57600080fd5b8335610989816107a6565b9250602084013567ffffffffffffffff8111156109a557600080fd5b6109b186828701610829565b925050604084013590509250925092565b6000602082840312156109d457600080fd5b5051919050565b634e487b7160e01b600052601160045260246000fd5b600082821015610a0357610a036109db565b500390565b600060208284031215610a1a57600080fd5b81518015158114610a2a57600080fd5b9392505050565b634e487b7160e01b600052603260045260246000fd5b6000600019821415610a5b57610a5b6109db565b5060010190565b6000816000190483118215151615610a7c57610a7c6109db565b500290565b60008219821115610a9457610a946109db565b50019056fea2646970667358221220eb7e7555790a74dd55a981626c5d789ece815a7f8493386c9f1c2721c77b765864736f6c63430008080033",
  "linkReferences": {},
  "deployedLinkReferences": {}
}