{
  "_format": "hh-sol-artifact-1",
  "contractName": "MultiSend",
  "sourceName": "contracts/utility/MultiSend.sol",
  "abi": [
    {
      "inputs": [],
      "stateMutability": "nonpayable",
      "type": "constructor"
    },
    {
      "inputs": [
        {
          "internalType": "contract IERC20",
          "name": "token",
          "type": "address"
        },
        {
          "internalType": "address[]",
          "name": "to",
          "type": "address[]"
        },
        {
          "internalType": "uint256",
          "name": "amount",
          "type": "uint256"
        }
      ],
      "name": "multiSendFixedAmount",
      "outputs": [],
      "stateMutability": "nonpayable",
      "type": "function"
    },
    {
      "inputs": [
        {
          "internalType": "contract IERC20",
          "name": "token",
          "type": "address"
        },
        {
          "internalType": "address[]",
          "name": "to",
          "type": "address[]"
        },
        {
          "internalType": "uint256[]",
          "name": "amounts",
          "type": "uint256[]"
        }
      ],
      "name": "multiSendFlexibleAmount",
      "outputs": [],
      "stateMutability": "nonpayable",
      "type": "function"
    }
  ],
  "bytecode": "0x608060405234801561001057600080fd5b506107b5806100206000396000f3fe608060405234801561001057600080fd5b50600436106100365760003560e01c8063d70713801461003b578063fccd465e14610050575b600080fd5b61004e6100493660046105b9565b610063565b005b61004e61005e366004610685565b6102a6565b80518251146100b15760405162461bcd60e51b8152602060048201526015602482015274496e76616c696420696e707574206c656e6774687360581b60448201526064015b60405180910390fd5b6100ba81610474565b6040516370a0823160e01b81523360048201526001600160a01b038516906370a082319060240160206040518083038186803b1580156100f957600080fd5b505afa15801561010d573d6000803e3d6000fd5b505050506040513d601f19601f8201168201806040525081019061013191906106de565b10156101765760405162461bcd60e51b8152602060048201526014602482015273496e73756666696369656e742062616c616e636560601b60448201526064016100a8565b60005b82518110156102a057836001600160a01b03166323b872dd338584815181106101a4576101a46106f7565b60200260200101518585815181106101be576101be6106f7565b60209081029190910101516040516001600160e01b031960e086901b1681526001600160a01b0393841660048201529290911660248301526044820152606401602060405180830381600087803b15801561021857600080fd5b505af115801561022c573d6000803e3d6000fd5b505050506040513d601f19601f82011682018060405250810190610250919061070d565b61028e5760405162461bcd60e51b815260206004820152600f60248201526e151c985b9cd9995c8819985a5b1959608a1b60448201526064016100a8565b806102988161074c565b915050610179565b50505050565b6040516370a0823160e01b815233600482015281906001600160a01b038516906370a082319060240160206040518083038186803b1580156102e757600080fd5b505afa1580156102fb573d6000803e3d6000fd5b505050506040513d601f19601f8201168201806040525081019061031f91906106de565b10156103645760405162461bcd60e51b8152602060048201526014602482015273496e73756666696369656e742062616c616e636560601b60448201526064016100a8565b60005b82518110156102a057836001600160a01b03166323b872dd33858481518110610392576103926106f7565b60209081029190910101516040516001600160e01b031960e085901b1681526001600160a01b0392831660048201529116602482015260448101859052606401602060405180830381600087803b1580156103ec57600080fd5b505af1158015610400573d6000803e3d6000fd5b505050506040513d601f19601f82011682018060405250810190610424919061070d565b6104625760405162461bcd60e51b815260206004820152600f60248201526e151c985b9cd9995c8819985a5b1959608a1b60448201526064016100a8565b8061046c8161074c565b915050610367565b600080805b83518110156104bb57838181518110610494576104946106f7565b6020026020010151826104a79190610767565b9150806104b38161074c565b915050610479565b5092915050565b6001600160a01b03811681146104d757600080fd5b50565b634e487b7160e01b600052604160045260246000fd5b604051601f8201601f1916810167ffffffffffffffff81118282101715610519576105196104da565b604052919050565b600067ffffffffffffffff82111561053b5761053b6104da565b5060051b60200190565b600082601f83011261055657600080fd5b8135602061056b61056683610521565b6104f0565b82815260059290921b8401810191818101908684111561058a57600080fd5b8286015b848110156105ae5780356105a1816104c2565b835291830191830161058e565b509695505050505050565b6000806000606084860312156105ce57600080fd5b83356105d9816104c2565b925060208481013567ffffffffffffffff808211156105f757600080fd5b61060388838901610545565b9450604087013591508082111561061957600080fd5b508501601f8101871361062b57600080fd5b803561063961056682610521565b81815260059190911b8201830190838101908983111561065857600080fd5b928401925b828410156106765783358252928401929084019061065d565b80955050505050509250925092565b60008060006060848603121561069a57600080fd5b83356106a5816104c2565b9250602084013567ffffffffffffffff8111156106c157600080fd5b6106cd86828701610545565b925050604084013590509250925092565b6000602082840312156106f057600080fd5b5051919050565b634e487b7160e01b600052603260045260246000fd5b60006020828403121561071f57600080fd5b8151801515811461072f57600080fd5b9392505050565b634e487b7160e01b600052601160045260246000fd5b600060001982141561076057610760610736565b5060010190565b6000821982111561077a5761077a610736565b50019056fea2646970667358221220ae5b166b9eaea715bda58c9f7fb89cb996a25c55bf48c3955b63ebe3ef8c93d964736f6c63430008080033",
  "linkReferences": {},
  "deployedLinkReferences": {}
}